:100000000C943E000C9450000C9450000C94500042
:100010000C9450000C9450000C9450000C94500020
:100020000C9450000C9450000C9450000C94500010
:100030000C9450000C9450000C9450000C94500000
:100040000C9450000C9450000C9450000C945000F0
:100050000C9450000C9450000C9450000C945000E0
:100060000C9450000C9450000C9450000C945000D0
:100070000C9450000C9450000C94500011241FBE9E
:10008000CFEFD8E0DEBFCDBF11E0A0E0B1E001C00E
:100090001D92A230B107E1F70E9471000C94770025
:1000A0000C940000F89411B88FEF84B987B98AB91D
:1000B00018B878940895E0E8F0E09081916F90830B
:1000C00090E0909389008093880090938B008093B8
:1000D0008A00E1E8F0E080818260808310928200F3
:1000E00008950E94520084E60E945B00FFCFF894BE
:0200F000FFCF40
:00000001FF
