:100000000C943E000C9448000C9448000C9448005A
:100010000C9448000C9448000C9448000C94480040
:100020000C9448000C9448000C9448000C94480030
:100030000C9448000C9448000C9448000C94480020
:100040000C9448000C9448000C9448000C94480010
:100050000C9448000C9448000C9448000C94480000
:100060000C9448000C9448000C9448000C944800F0
:100070000C9448000C9448000C94480011241FBEB6
:10008000CFEFD8E0DEBFCDBF0E9460000C94B60079
:100090000C9400004A9B0BC08FE19EE40197F1F79E
:1000A00000C0000089B182FB882780F9089580E0B4
:1000B000089589B182FB882780F991E08927089506
:1000C00011B88FEF84B987B91AB882E088B9C12C0A
:1000D000D12C7601C0E0D1E012E0C23039F128F431
:1000E000CC2349F0C13061F03BC0C43069F128F144
:1000F000C53089F135C018B90E944A00C82F30C0F8
:10010000BB27AF2D9E2D8D2D87709927AA27BB2742
:10011000892B8A2B8B2B11F081E001C082E088B9FA
:100120000E9459008823E1F0C2E01AC0D8B90E94A9
:100130004A008823A9F0C3E013C018B90E945900EF
:10014000882371F0C4E00CC018B80E944A008823CC
:1001500039F0C5E005C0D8B90E9459008111C0E04E
:100160008FEFC81AD80AE80AF80AB7CFF894FFCF79
:00000001FF
