:100000000C943E000C9448000C9448000C9448005A
:100010000C9448000C9448000C9448000C94480040
:100020000C9448000C9448000C9448000C94480030
:100030000C9448000C9448000C9448000C94480020
:100040000C9448000C9448000C9448000C94480010
:100050000C9448000C9448000C9448000C94480000
:100060000C9448000C9448000C9448000C944800F0
:100070000C9448000C9448000C94480011241FBEB6
:10008000CFEFD8E0DEBFCDBF0E945E000C948A00A7
:100090000C94000082E088B92FEF89E698E12150A6
:1000A00080409040E1F700C0000018B808958FE14B
:1000B0009EE40197F1F700C0000008958FEF81B929
:1000C00084B987B91AB8C0E020E080E090E021113F
:1000D000FECF85309105C9F04A9B0AC0EFE1FEE4EE
:1000E0003197F1F700C000004A9BF3CFC1E0F1CF98
:1000F000EFE1FEE43197F1F700C000004A99E9CF43
:10010000CC2339F30196C0E0E4CF0E944A0080E09E
:0801100090E0DFCFF894FFCF6F
:00000001FF
