:100000000C947F000C9494000C9494000C94940035
:100010000C9494000C9494000C9494000C94940010
:100020000C9494000C9494000C9494000C94940000
:100030000C9494000C9494000C9494000C949400F0
:100040000C9494000C9494000C9494000C949400E0
:100050000C9494000C9494000C9494000C949400D0
:100060000C9494000C9494000C9494000C949400C0
:100070000C9494000C9494000C9494000763423602
:10008000B79BD8A71A39685618AEBAAB558C1D3C29
:10009000B7CC5763BD6DEDFD753EF6177231BF00ED
:1000A0000000803F08000000BE922449123EABAA27
:1000B000AA2ABECDCCCC4C3E00000080BEABAAAA82
:1000C000AA3E00000000BF000000803F00000000CA
:1000D00000084178D3BB4387D1133D190E3CC3BD03
:1000E0004282AD2B3E68EC8276BED98FE1A93E4CB0
:1000F00080EFFFBE01C4FF7F3F000000000011241D
:100100001FBECFEFD8E0DEBFCDBF11E0A0E0B1E071
:10011000E6E6FCE002C005900D92A230B107D9F7E7
:100120000E9478020C9431060C9400002FE23DED01
:1001300044EA5FEB0E94AE0320E03CE642E356E473
:100140000E944B030895089580EA80930001109265
:10015000B90080E28093B800089520E8FC01208374
:100160000C94A400982F9370891305C0880F806A9F
:100170008093000108958FEF089594EA24E8909306
:10018000BC008091BC0087FFFCCF80910001809370
:10019000BB002093BC008091BC0087FFFCCF809106
:1001A000B900883161F784EA8093BC008091BC007B
:1001B00087FFFCCF809100018093BB0084E880938F
:1001C000BC008091BC0087FFFCCF7093BB0084E82B
:1001D0008093BC008091BC0087FFFCCF6093BB0084
:1001E00084E88093BC008091BC0087FFFCCF8091A5
:1001F000BC0087FFFCCF84EA8093BC008091BC00E8
:1002000087FFFCCF809100018F5F8093BB0084E863
:100210008093BC008091BC0087FFFCCF84E8809372
:10022000BC008091BC0087FFFCCF8091BB00FA012D
:10023000808384E98093BC0080E0089594EA34E8E8
:100240009093BC008091BC0087FFFCCF809100019F
:100250008093BB003093BC008091BC0087FFFCCF33
:100260008091B900883161F784EA8093BC00809165
:10027000BC0087FFFCCF809100018093BB0084E825
:100280008093BC008091BC0087FFFCCF7093BB00C3
:1002900084E88093BC008091BC0087FFFCCF609312
:1002A000BB0084E88093BC008091BC0087FFFCCF3A
:1002B00084EA8093BC008091BC0087FFFCCF8091D2
:1002C00000018F5F8093BB0084E88093BC00809125
:1002D000BC0087FFFCCFFA0184EC222371F02130AF
:1002E00009F484E88093BC009091BC0097FFFCCF98
:1002F0009091BB0091932150F0CF84E98093BC0092
:1003000080E0089594EA24E89093BC008091BC00BA
:1003100087FFFCCF809100018093BB002093BC003D
:100320008091BC0087FFFCCF8091B900883161F7D4
:1003300084EA8093BC008091BC0087FFFCCF809151
:1003400000018093BB0084E88093BC008091BC00D6
:1003500087FFFCCF7093BB0084E88093BC00809142
:10036000BC0087FFFCCF6093BB0084E88093BC0097
:100370008091BC0087FFFCCF4093BB0084E8809352
:10038000BC008091BC0087FFFCCF84E98093BC0057
:1003900080E00895FB01E20FF11DDC012C9130E0BB
:1003A00021503109262B372BE217F30710F0F90102
:1003B00031968E2F861B24EA34E82093BC0090915E
:1003C000BC0097FFFCCF909100019093BB0030934D
:1003D000BC009091BC0097FFFCCF9091B900983180
:1003E00061F794EA9093BC009091BC0097FFFCCF1A
:1003F000909100019093BB0094E89093BC00909181
:10040000BC0097FFFCCF7093BB0094E89093BC00B6
:100410009091BC0097FFFCCF6093BB0094E8909351
:10042000BC009091BC0097FFFCCFFA01982F24E804
:10043000992359F031913093BB002093BC00309147
:10044000BC0037FFFCCF9150F3CF94E99093BC00F0
:100450000895CF92DF92EF92FF921F93CF93DF9395
:100460006C017A01122FEB01212FA701BE01C601F9
:100470000E94CA01282F30E0C20FD31F181BE20EC2
:10048000F31E1111F1CF80E0DF91CF911F91FF900A
:10049000EF90DF90CF90089510927C0086E88093D3
:1004A0007A00089510927A00089580917C00807EF1
:1004B00080937C0080917C006770682B60937C0047
:1004C00080917A00806480937A0080917A0084FF22
:1004D000FCCF80917A00806180937A00209178002F
:1004E0008091790090E0982F8827820F911D0895C0
:1004F000CF93DF931F92CDB7DEB711B88FEF84B9DA
:1005000087B91AB881E088B9CE0101960E944C02E1
:1005100012E001E060E0CE0101960E94550296953E
:10052000879596958795BC0180E090E00E94EA024D
:100530000E9496006B017C0120E030E040E251E433
:100540000E94E60287FD40C020E030E040E551E433
:10055000C701B6010E94E60287FD28C020E030E016
:1005600040E851E4C701B6010E94E60287FD2AC0B7
:1005700020E030E048E951E4C701B6010E94E602FC
:1005800087FD14C020E030E040EB51E4C701B60124
:100590000E94E60287FD16C020E030E048EC51E4FE
:1005A000C701B6010E94E60287FF02C008B9B2CFB8
:1005B00020E030E040EE51E4C701B6010E94E602BF
:1005C00087FF02C018B9A6CF18B8A4CF40D008F44E
:1005D00081E00895E89409C097FB3EF490958095DA
:1005E000709561957F4F8F4F9F4F9923A9F0F92FF9
:1005F00096E9BB279395F695879577956795B79577
:10060000F111F8CFFAF4BB0F11F460FF1BC06F5F5C
:100610007F4F8F4F9F4F16C0882311F096E911C06E
:10062000772321F09EE8872F762F05C0662371F08F
:1006300096E8862F70E060E02AF09A95660F771FA3
:10064000881FDAF7880F9695879597F90895990F7F
:100650000008550FAA0BE0E8FEEF16161706E8078C
:10066000F907C0F012161306E407F50798F0621BAD
:10067000730B840B950B39F40A2661F0232B242B82
:10068000252B21F408950A2609F4A140A6958FEFA1
:10069000811D811D08950BD01AC10BD128F010D1F6
:1006A00018F0952309F0D7C0DCC0112444C120D133
:1006B000A0F3959FD1F3950F50E0551F629FF00175
:1006C000729FBB27F00DB11D639FAA27F00DB11DCE
:1006D000AA1F649F6627B00DA11D661F829F222757
:1006E000B00DA11D621F739FB00DA11D621F839FDE
:1006F000A00D611D221F749F3327A00D611D231FB4
:10070000849F600D211D822F762F6A2F11249F5701
:1007100050408AF0E1F088234AF0EE0FFF1FBB1F24
:10072000661F771F881F91505040A9F79E3F5105C3
:1007300070F091C000C15F3FECF3983EDCF386950A
:1007400077956795B795F795E7959F5FC1F7FE2B6E
:10075000880F911D9695879597F90895FA01EE0FE8
:10076000FF1F30962105310599F16115710561F47E
:100770008038BFE39B0749F168949038810561F0A8
:100780008038BFEF9B0741F0992342F5FF3FE10519
:100790003105210511F1E8940894E795D901AA23C0
:1007A00029F4AB2FBE2FF85FD0F310C0FF5F70F4B9
:1007B000A695E0F7F73950F019F0FF3A38F49F7733
:1007C0009F930CD00F9007FC905808953EF049C0BD
:1007D00060E070E080E89FE308954FE79F775F93C4
:1007E0004F933F932F93EFD02F913F914F915F9174
:1007F00052DF05C019F40EF02EC09CC032C080D06C
:10080000C8F39638C0F707F80F92E8942BE33AEA5A
:1008100048EB5FE74EDF0F920F920F924DB75EB736
:100820000F9211D1ECE7F0E01FD04F915F91EF9163
:10083000FF91E595EE1FFF1F49F0FE57E068442742
:10084000EE0F441FFA95E1F74195550B83D00F90B9
:1008500007FE77C0089597F99F6780E870E060E031
:1008600008959FEF80EC0895DF93CF931F930F932C
:10087000FF92EF92DF927B018C01689405C0DA2E23
:10088000EF0115DFFE01E894A59125913591459181
:100890005591AEF3EF011CD1FE019701A801DA9446
:1008A00079F7DF90EF90FF900F911F91CF91DF913B
:1008B000089500240A9416161706180609060895C6
:1008C00000240A9412161306140605060895092E2C
:1008D0000394000C11F4882352F0BB0F40F4BF2B9B
:1008E00011F460FF04C06F5F7F4F8F4F9F4F0895DB
:1008F00057FD9058440F551F59F05F3F71F04795D1
:10090000880F97FB991F61F09F3F79F087950895B5
:10091000121613061406551FF2CF4695F1DF08C0D4
:10092000161617061806991FF1CF869571056105F1
:1009300008940895E894BB2766277727CB0197F999
:1009400008959B01AC0160E070E080E89FE313C173
:1009500082CF79C1D5DFE8F39923D9F3940F511DE4
:10096000BBF39150504094F059F0882332F0660F59
:10097000771F881F91505040C1F79E3F510544F7A3
:10098000880F911D9695879597F908955F3FACF074
:10099000983E9CF0BB27869577956795B79508F4A8
:1009A000B1609395C1F7BB0F58F711F460FFE8CF22
:1009B0006F5F7F4F8F4F9F4FE3CFBDCF0EF043C18F
:1009C00050CF689448CF9CDFC8F39923D1F3C6F386
:1009D000DF93CF931F930F93FF92C92FDD278823B7
:1009E0002AF02197660F771F881FDAF720E030E0A2
:1009F00040E85FEB9FE3883920F0803E30F021969D
:100A00008F7755D0E4EAF0E003C051D0E1EDF0E09B
:100A10002BDF8B01BE01EC01FB2E6F577109759521
:100A2000771F880B990BD8DD28E132E741E35FE3BC
:100A30003EDEAF2D9801AE01FF900F911F91CF9137
:100A4000DF9146D044CFFA01DC01AA0FBB1F9B0106
:100A5000AC01BF5728F422273327442750781FC002
:100A6000B75188F4AB2F0024469537952795011C84
:100A7000A395D2F3002069F0220F331F441FB395D2
:100A8000DAF30DD013C061307105A0E88A07B946CA
:100A900030F49B01AC016627772788279078309641
:100AA00021F0208331834283538308955058BB271C
:100AB000AA270ED00CCFFDDE30F002DF20F031F49B
:100AC0009F3F11F41EF4CDCE0EF4E095E7FBC3CEAC
:100AD000E92F0EDF80F3BA176207730784079507C3
:100AE00018F071F49EF526CF0EF4E0950B2EBA2F78
:100AF000A02D0B01B90190010C01CA01A001112424
:100B0000FF27591B99F0593F50F4503E68F11A16CF
:100B1000F040A22F232F342F4427585FF3CF469560
:100B200037952795A795F0405395C9F77EF41F1682
:100B3000BA0B620B730B840BBAF09150A1F0FF0F4C
:100B4000BB1F661F771F881FC2F70EC0BA0F621F38
:100B5000731F841F48F4879577956795B795F79528
:100B60009E3F08F0B3CF9395880F08F09927EE0FBA
:100B70009795879508950CD0AACEA2DE40F099DE15
:100B800030F021F45F3F19F066CE5111D4CE69CE1A
:100B9000AFDE98F39923C9F35523B1F3951B550B99
:100BA000BB27AA2762177307840738F09F5F5F4F40
:100BB000220F331F441FAA1FA9F333D00E2E3AF081
:100BC000E0E830D091505040E695001CCAF729D09B
:100BD000FE2F27D0660F771F881FBB1F26173707EA
:100BE0004807AB07B0E809F0BB0B802DBF01FF271A
:100BF00093585F4F2AF09E3F510568F02CCE9BCE54
:100C00005F3FECF3983EDCF3869577956795B79553
:100C1000F7959F5FC9F7880F911D9695879597F96E
:100C20000895E1E0660F771F881FBB1F62177307E7
:100C30008407BA0720F0621B730B840BBA0BEE1FFC
:100C400088F7E09508959F3F31F0915020F4879503
:100C500077956795B795880F911D9695879597F924
:060C60000895F894FFCF97
:020C6600A000EC
:00000001FF
